S02300006D7135355F6672656572746F735F64656D6F2E61332E7369676E65642E73313952
S38510000000484953574544474401000003100000000008B0A8100000200000000001000003DFF804D000F020B800000220FEE700BFFEE700BF704700BF704700BF704700BF704700BF704700BF704700BF704700BF704700BF704700BF704700BF704700BF704700BFFFF7E4BF40F2001244F26063C2F20002C2F200039A4210B510D2D04335
S38510000080184420F0030046F648330430C1F208031844196804338342116002F10402F8D1174818494FF000028842B8BF40F8042BFADB40F2000440F20013C2F20004C2F200039C4211D2E043184420F0030040F200120430C1F2000210442346116804328242196003F10403F8D14FF0E023C3F8084D00F009F8BDE8104000F091B8000000
S385100001006046002082370120704700BF000000000000000000000000000000000000000000000220010000100D0000100D0000100D0000100D0000100D0000100000000000000000000000000000000059CF00103500001000000000E5CF001021D00010450000104500001045000010450000104500001011550010115500101155001042
S385100001801155001011550010115500104500001045000010450000104500001045000010450000104500001045000010450000104500001045000010450000104500001045000010450000104500001045000010450000104500001045000010450000104500001045000010450000104500001045000010450000104500001045000010E6
S38510000200450000104500001045000010450000104500001045000010450000104500001030B5002085B005F01BFB044600B1FEE703F022FA04F0DEFB04F09EFA03F0D0FD04F09EFB44F21C63C2F2000393E80600082000F051F84FF48071264800F05AF8204600F083F803F0E1F902460028DED13C2140200BF0F2F944F28875C2F2000568
S38510000280A86000F021FA0446A8B9022340F6C5004CF22C7100930194234602940394C1F20000C1F203014FF4FA620BF0A1FD0128034604D0FEE74FF0FF3005B030BD2A1D40F69D004CF234710093019202940394C1F20000C1F20301FA2223460BF088FD012800D0FEE768680BF0AEFE0BF0BCFF2046E2E75447011070B50C4615460646D1
S3851000030004F052FB44F26063C2F200035C601E609D6070BD002970B4C2BF4FF48056C4F20306002320DD04784578827804EB052404EB024403F5807201338B4200F1030046F82240EFD1FF290CDC4FF48052C4F203026FF07F4001F580730131FF2942F82300F8DD70BC70470021EEE744F26063C2F200031A680146042A0CD0082A09D1B2
S385100003805A689B684FF4544003FB02F2C2F2020013F094BC70475A689B684FF4544001EB011103FB02F2C2F2020013F087BC00BF2DE9F04744F26069C2F20009D9F800401768042C04BF40107F10D9F8043056689246C2199A42C8BFC0EB0308D9F8082001FB030301EB0604D8BFB8469442C8BFC1EB020603F10053002E03F5353310DDFF
S3851000040000242546DAF8081018462144424613F001FC0135D9F804100346B5423C440B44F0D1BDE8F08700BF2DE9F04D44F2606A5F68C2F2000A16469B46DAF80430C219D6F804809A4201FB0305DAF8082001EB0804C8BFC0EB03079442C8BFC1EB020805F10055B8F1000F05F5353511DD00243368DBF80010B26903FB0411284611448B
S385100004803A4613F0C7FB0134DAF8041044450D44EED1BDE8F08D00BF2DE9F04F85B00E9E824602911446039326B153683060F360039B7160596800295DDD44F260671A68C2F20007002504E0A36801358D429A4451DA12F80580A8F12103DBB25D2BF3D863694FEAC808A8F584789844D8F804607B68B4460196D4446668DDF808B09C45B5
S38510000500D7F808C0B344CCBFCAEB0309DDF80490E345C4BF0298C0EB0C060298002E03FB00A303F1005303F535332DDD4FF0000BD8F800202168184601FB0B21A2690BF1010B11444A4613F065FB7A680346B3451344EDD1039B039E1A686369505D716803EBC003A3F584735868237B013518448D428244ADDB0E9C1CB12368C3EB0A030D
S38510000580A36005B0BDE8F08F0198EEE72DE9F04144F2606502688768C2F200056B68D41988464168C6689C42C8BFC2EB0307A86801FB03238C198442C8BFC1EB000603F10053002E03F535330BDD0024184641463A4613F073FB013403466868B4420344F4D1BDE8F08100BFF0B587B0002368468DF8103007F02AF9009B590755D4DA0783
S385100006000DD49B0702D5022007F016F94EF60453CEF200034FF080521A6007B0F0BD44F26C64C2F200042046002507F017F90395039B032B27D840F20016C2F20006A21E538803F00F00C3F303110190029183B10198029B039903EB80001038039B305C06AF39443B448DF8100001F8080C03F8075C039B22F8025F01330393039B032B0F
S38510000680DED99DF81050012007F0D6F844F29073C2F2000318684B26012306490022257426720BF02BF9009BABE7042007F0C4F8009BA4E774460020052007F0B3B800BF052007F099B800BF10B5002088B0F0210F22012340F2C95403938DF81400ADF81210ADF8102002ABC1F200040FCB009406F0F8FF08B010BD44F2B063C2F2000335
S38510000700002118680A460B460BF0F8B82DE9F84F09F0ECFF40F2D960C1F200000AF074F801200BF0C7F844F2B0650021C2F200052E460A460B4646F8A40B0BF025F944F2A06844F2E06944F2F06B44F2007A44F29077C1F20108C1F20109C1F2010BC1F2010AC2F20007012009F0DEFF022009F0DBFF032009F0D8FF00210B4628684FF684
S38510000780FF720BF001F944F2B0640128C2F20004F2D104F011FB211D02200AF011F90AF029F8237903B34522D90784F89C2036D49A073DD458074DD419075DD41A0671D45B0665D4012009F0AFFF022009F0ACFF032009F0A9FF37490022012338680AF073FF04F0FFFABEE7E3794D2284F89C207BB943F63E63C2F23E0333602C7A2E4848
S385100008002246A0F19C01043413F004FAC5F8A040E1E743F63C43C2F23C033360EEE74FF0100E98E80F00C4F8A0E086E80F00C9E744F2B46EC1F2010E04F1A40CBEE80F00ACE80F00DEF800301422CCF80030C4F8A020B7E744F2CC6EC1F2010E04F1A40CBEE80F00ACE80F00DEF800201223ACF80020C4F8A030A5E704F1A40E99E80F00F8
S38510000880AEE807000D228EF80030C4F8A02099E704F1A4039AE8070003C309211A70C4F8A0108FE70C239BE80700C4F8A03086E8070087E74C4700205847002038B540F21015C2F20005002455F8242004200A21FFF76EFD0134322004F01F040BF0C2FEF2E700BF2DE9F04F9DB00BF049FD0025042444F299304CF2D4618DE83000029518
S3851000090003952B46C1F20000C1F203014FF4FA720BF06EFA012800D0FEE741F6A9504CF2DC618DE8300002950395C1F20000C1F2030140F2DC522B460BF05AFA012800D0FEE740F2ED604CF2E4618DE8300002950395C1F20000C1F203014FF4FA722B460BF046FA012800D0FEE745F279104CF2EC618DE8300002950395C1F20000C1F219
S3851000098003014FF4FA722B460BF032FA012800D0FEE744F69837C2F200070B974CF2F467C1F2030707974CF20477C1F20307089744F2E477C2F200070D974CF21077C1F2030709974CF21C77C1F2030744F288740A9740F21017C2F20004C2F20007A2460C9744F21C6744F6C448C2F200075AF814BB0F9510951195129513951495159513
S38510000A001695A946C2F20008254606970FAEBBF1290F00F00B8173DCBBF10A0F00F0588400F39A80BBF1040F00F0CF8300F39681BBF1010F00F0458440F38885BBF1020F40F0C98100233360139310931193129314931593169303F02BFA40F2705244F20C732821C2F20002C1F2010369200096FFF712FD14230EA8236007F011FC0E9B09
S38510000A8013F0800100F07285D8F800309B6ADA6942F48062DA61A068AC4947F2305200230AF072FF002800F01F852B7B303B232B00F2B280DFE813F02304B000B000B000B000B000B000B000B000B000B000B000B000B000B000B000B000B000B0002304B0002004B000B000B000B000B000B000B000B000B000B000B000B00086038303BA
S38510000B00BBF15A0F00F0408158DCBBF1360F00F09E8300F3A382BBF1330F00F0838440F30A84BBF1340F40F0C38130460021FFF72DFD13A80021FFF729FD40F27052844B0096C2F2000269202821FFF7A5FC32239B462360292B5EE7BBF11E0F00F0588100F30283BBF1150F00F0938340F38C83BBF1160F40F0848230460021FFF706FD00
S38510000B8013A80021FFF702FD40F2705244F20C730096C2F20002C1F2010369202821FFF77BFCD8F8003014229B6A9346D969226041F48062DA61BBF1290F2CE740F263239B4500F0A981BBF5197FC0F29381BBF52F7F00F008827ADCBBF51B7F6ED103F055FB40F26D232360A068584941F2707200230AF0C9FE002800F093842B7BA3F1F8
S38510000C004301A3F13002C9B2D2B2092A88BF032900F2788401232B60A06800210AF0E6FCD4F800B0BBF1290F7FF4F5AE30460021FFF7ACFCE36C122B1ED1AB6C2E211A4652F801BFD2F804C0D2F808E0D068C3F800B0C3F804C0D860C3F808E0E86C92F810E0AA6C0138E86483F810E01170AB6C5970AB6C9970EB6C217DA26C5220D154EB
S38510000C80E36C40F28C52112B9CBF0133EB64C2F20002A2212F4B0096FFF7FEFB13AB40F254520093C2F200022B4B1120A221FFF7F3FB28239B462360292BACE640F26D239B4591D001239B462360292BA3E640F2C6239B4540F06F82A0681C4947F2305200230AF051FE002800F0D3842B7B303B132B91D801A151F823F000BF7F1600108A
S38510000D00F90B0010F90B0010F90B0010F90B0010F90B0010F90B0010F90B0010F90B0010F90B0010F90B0010F90B0010F90B0010F90B0010F90B0010F90B0010F90B001095150010DD1100107F1600109447002044470110D047002034470110BBF1060F00F0BD83C0F2A383BBF1070F00F02781BBF1090FA6D160680BF066F903F086FA73
S38510000D805A2323604FF0000903F004FE0C9F352007EB8903D3F880205821FFF709FB03F0EFFDA068C749322200230AF0EDFD002840F0E48348F6396309F10109C3F6E30383FB09E34FEAE972C2EBE30303EBC303A9EB830924E7BBF1030F7FF473AF00233360139310931193129314931593169303F0B2F840F27052B34BC2F200026520E9
S38510000E0028210096FFF748FB09F0EAFC1E232360A068AC4947F2305200230AF0B5FD002800F037842B7B303B1D2B3FF6F5AE0FF2080E5EF823F000BF7F160010F90B0010F90B0010F90B0010F90B0010F90B0010F90B0010F90B0010F90B0010F90B0010F90B0010F90B0010F90B0010F90B0010F90B0010F90B0010F90B0010F90B0010DE
S38510000E80F90B00107F160010F90B001087140010F90B0010F90B0010F90B0010F90B0010F90B0010F90B0010F90B00107F140010BBF1350F7FF406AF30460021FFF766FB099F13AB4FF0090E40F254520093C2F200021820A2217D4BA764C4F84CE0FFF7DBFA40F28C520096C2F200024D20A221774B2AE640F25922934538D030DD40F2A7
S38510000F005A22934538D0083293457FF4DBAE059303F0E6F9059B2360A0686A4941F2707200230AF031FD002800F009832B7BA3F14301A3F13002C9B2D2B2092A88BF03297FF668AE412B00F0E782422B1CBF40F263232B607FF460AE4FF41B732B605BE6BBF5167F7FF4AEAE60680BF06DF803F0A3F940F25A232360A068524941F270720E
S38510000F8000230AF001FD002800F0D2822B7BA3F14301A3F13002C9B2D2B2092A88BF03297FF638AE412BD7D0422B1CBF40F25A232B607FF431AE40F262232B602CE603F087F800224623139214934FF4A07273231592169313A80021FFF7D8FA03F0B4F84FF42F732360A068364947F2305200230AF0CAFC002800F04C832B7B303B132B4B
S385100010003FF60AAE0FF2040E5EF823F07F160010F90B0010F90B0010F90B0010F90B0010F90B0010F90B0010F90B0010F90B0010F90B0010F90B0010F90B0010F90B0010F90B0010F90B0010F90B0010F90B0010DD110010631200107F160010BBF1460FB8D040F3CE80BBF1470F35D113A80021FFF78CFA03F09EF840F2C62323602BE642
S38510001080BBF1170F7FF41EAE30460021FFF77EFA13AB079F009340F254520E4BC2F200024FF00F0E1820A221A764C4F84CE0FFF7F3F940F28C520096C2F200024D20A221034B6CE594470020144701103C470110D047002024470110BBF1480F7FF4F2AD13A80021FFF752FA03F09AF84FF434732360A068C74947F2305200230AF044FC8C
S38510001100002800F0C6822B7B303B132B3FF684AD01A252F823F000BF7F160010F90B0010F90B0010F90B0010F90B0010F90B0010F90B0010F90B0010F90B0010F90B0010F90B0010F90B0010F90B0010F90B0010F90B0010F90B0010F90B001063120010951500107F160010BBF1200F00F07782C0F25582BBF1210F00F02882BBF1280F16
S385100011807FF4A0ADA068A34947F2305200230AF0FBFB002800F012822B7B4B2B04BF29232B603FF439AD432B7FF436ADFFF784FA01232B6030E5BBF5347F9AD082E51523236029E51623236026E502F0EFFE40F27052C2F20002904B692028210096FFF75BF90021A0680AF001FAFFF769FA0022282317A9A164E2642360C3E748232360FC
S385100012000AE5BBF13C0F7FF45DADA068814947F2305200230AF0B8FB98B12B7BA3F13101A3F14102C9B2D2B2012A88BF082904D9A3F14402D2B2022A3DD84FF416732360EAE401239B462B60292BFFF7E4BB30460021FFF79BF90A9F4FF00D0E40F28C520096C2F200024D20A2216C4BA764C4F84CE0FFF711F9C4F800B0BBF1290FFFF7B8
S38510001280CABB47232360C7E4BBF1140F3FF403AC18E530460021FFF779F913A940F254520091C2F200024FF0120E1820A2215C4BC4F848A0F9E6432B18BF302B7FF4ACACA8E402F0A3FD60680AF042FF0A232360A068504947F2305200230AF055FB002800F0D7812B7B313B052B3FF695ACDFE803F01F1C19161310172323608CE4D8F83E
S38510001300003001229B6A2260DA6922F48062DA6182E4072323607FE4062323607CE40523236079E40423236076E40323236073E40223236070E4BBF1320F7FF4C3AC0D9F00210A460B4638680AF0BEF9A068314947F2305200230AF017FB002800F099812B7B303B272B3FF657AC0FF2080E5EF823F000BFDF120010F90B0010F90B00104E
S38510001380F90B0010F90B0010F90B0010F90B0010F90B0010F90B0010F90B0010F90B0010F90B0010F90B0010F90B0010F90B0010F90B0010F90B0010F90B0010F90B0010DF120010F90B001077140010F90B0010F90B0010F90B0010F90B0010F90B0010F90B0010F90B0010F90B00106F140010F90B0010F90B0010F90B001067140010ED
S385100014005F140010F90B0010F90B0010F90B001057140010944700201C470110D04700202447011030460021FFF7B0F84FF0120E13A940F254520091C2F20002C4F84CE01820A221A04BC4F848A0FFF725F840F28C529E4BC2F200024D20A2210096FFF71BF84FF4FA600BF0FDF834239B462360292BFFF7D0BA32232360FFF7CDBB3323C0
S385100014802360FFF7C9BB34232360FFF7C5BB36232360FFF7C1BB35232360FFF7BDBB1F232360FFF7B9BB21232360FFF7B5BB00233360139310931193129314931593169302F020FD40F27052814B0096C2F2000269202821FEF7E0FF322323602FE702F0C3FD3C23236090E6D8F8003009229B6A2A60D969934621F48062DA61BBF1290FB2
S38510001500FFF789BA412B3FF456AD422B1CBF40F26D232B607FF480AB40F259232B60FFF77BBB40F259239B462B60292BFFF773BA40F262239B462B60292BFFF76CBA4FF41B739B462B60292BFFF765BABBF1000F7FF4B8AB02F044FC4FF47A700BF082F801239B462360292BFFF755BA0B9F0A460B4638680AF0A8F8FFF78DBA2B7BA3F1D6
S385100015804102303BD2B2DBB2092B88BF052A40F28A8048F6396209F10103C3F6E30282FB0312D917C1EBE20909EBC909A3EB8909FFF732BB46232360FFF72EBB09232B60FFF77AF8D5F800B0FFF721BA30460021FEF7DCFF089F13AB4FF00C0E40F254520093C2F200021120A2213A4BA764C4F84CE0FEF751FF40F28C52344B0096C2F2D1
S3851000160000025220A221FEF747FF4FF4FA600BF029F820239B462360292BFFF7FCB930460021FEF7B3FF236940F28C52122BE364C4BF1223EB64C4F848A0C2F200025220A221224B0096FEF727FF13A940F254520091C2F200021120A2211E4BD3E730460021FEF793FF13A80021FEF78FFF40F27052194BC2F20002652028210096FEF79B
S385100016800BFF09F0ADF81E239B462360292BFFF7C2B909239B462B60292BFFF7BCB901232360FFF7B9BA069F4FF0010997E806000820C5F80090FEF71FFE08484FF48071FEF728FEFFF7A8BA3C470110D0470020444701102C4701101447011054470110FEE700BF70B4030900F00F0003F1300603F1370500F1300400F13702092B94BF64
S3851000170033462B46092894BF204610460B70487070BC704710B488B944F2E471522444F29073C2F20001C2F2000301F8044F02465DF8044B186801230AF0E0B844F2E473C2F20003002118680A460B465DF8044B0AF0D4B800B583B0372302A800F8083D684612F047F99DF80130822B08BF002008D04CF21470C1F2030000F037FC012043
S38510001780C7F2000003B05DF804FB00BF00B583B001223F2368468DF800208DF8013012F045F903B05DF804FB30B5122283B083250446019003688DF800208DF801506846984708B103B030BD13238DF800308DF801502368684698470028F3D1752318228DF801308DF800202368684698470028E8D1612319228DF801308DF8002023686C
S38510001800684698470028DDD1592326228DF801308DF800202368684698470028D2D1FF2327228DF801308DF800202368684698470028C7D13F2328228DF801308DF800202368684698470028BCD11A2329228DF801308DF800202368684698470028B1D11E228DF80100236868468DF800209847A8E700BF2DE9F043012B89B005460E46B8
S385100018801C4601900390069117464ED013F0FD0F45D148F21F58C5F2EB18A8FB023802244FEA58184FF6FE7398453AD8B7F1200318BF01234FF0060901228DF812308DF810908DF8112004A87368984750BB202F28D00423102F8DF810908DF8113036D0012C02BF44238DF813008DF812300DD0022C0DBFA5233D220D238DF813400EBFEA
S385100019008DF812308DF812208DF81330736804A8984738B95FFA88F3C8F3072824E0032B0CD0102009B0BDE8F0834CF6CD48CCF6CC48A8FB02384FEAD808B3E744F6D358C1F26208A8FB02384FEA5818AAE74FF0FF080F238DF813308DF81280736804A8984743460028DDD1062105228DF810108DF812308DF8112073688DF8138004A866
S3851000198098470C24002240238DF802208DF801308DF80040AB6868469847012280238DF802208DF801308DF80040AB686846984704217F222B688DF808108DF8092002A89847AFE72DE9F047D4B024AC0DF1EC082BAD1FAA06460F46204601A9CDF85480CDF86080CDF86C8007940A940C94129512F0C8F80123224632A802A90DF01CFFF1
S38510001A002846224603A910F0B9FD4046224604A901230CF05FF905A932AA0DA849AB0DF033FF4FF001083F231CA88DF871308DF8708011F0FBFF032200238DF841208DF842308DF843308DF840802C9B10A898470C2210238DF818208DF8193006A8249B98472946434641F288322046FFF702FF152207238DF82D308DF82E80269B8DF8A9
S38510001A802C200BA8984704238DF8243000E030B9259B09A898479DF82530DB07F7D504234FF001098DF818308DF81990249B06A89847294641F2883200232046FFF7DAFE4FF000084FF0800A02238DF82C308DF82DA0269B8DF82E800BA898470322FF238DF82C208DF82E308DF82DA0269B0BA8984707238DF819308DF81890249B06A8B7
S38510001B0098474346C82220462946FFF7B3FE44AB262214938DF810818DF811818DF84C2013A83B9B984728B1C3B2062B02D054B0BDE8F08700231CAA1C931D931E938DF85C3016923C9B16A89847804698B94CF2A870C1F2030000F049FA9DF85C20D20810D016984346C15CF1540133D9B291423A60F8D306E04CF2B4704146C1F2030048
S38510001B8000F034FA29464FF47A7220460023FFF771FE3E9B19A8984754B0BDE8F08700BF2DE9F04FADF51B7D30AC059120AA06A90746204638AE11F0E5FF012322463FA808A90DF039FE224630460AA910F0D6FC4FF0010A48AD7AA980223FAB28460191029216A91CAACDF800A00CF0B7FC53A93FAA5EA80DF04CFA3F236AA84FF0000915
S38510001C008DF8A9318DF8A8A111F010FF5EAA20460F9211948DF840908DF841908DF848908DF84A908DF8499013948DF850908DF8519015948DF866908DF86790CDF868908DF864908DF865901B962F95FFF7ACFD0C2210238DF840208DF841304FF0060B236810A8984773681B968DF865A08DF866A08DF864B019A898474FF00408A52129
S38510001C8002228DF866108DF867208DF864B072688DF8658019A89047052132228DF865108DF866208DF86790726819A89047152107228DF849208DF84AA08DF8481012A8A26890478DF8508000E030B9636814A898479DF85130DA07F7D54FF0010A4FF0040B23688DF840B08DF841A010A8984706234FF0000905228DF8643064238DF8F4
S38510001D0065208DF866308DF867900DEB03001B967368984707238DF841308DF840A0236810A898470DA90EAA0CAB8DF8A8908DF8A9908DF8AA902B912C922D932F95EB682AA8984781464CF68C00C1F2030000F04DF940F20170B9F1000F03D00DF51B7DBDE8F08F31464B46204641F28832FFF781FD2B9B6AAA2995279225931A789DF856
S38510001D80B8103A7058786A6978709C7825A8BC70DB788DF89A10FB70059B8DF89890C3F800B08DF899908DF89BA08DF8A09090475EAA04460F920FA8629B984720460DF51B7DBDE8F08F00BF2DE9F04F43F69953C7B0012403220025C1F2000301A94FF480674FF4006620460593039701968DF810208DF8112002948DF8125004F068FDB8
S38510001E004FF41043C4F200031A68204622F002021A6009F04FFD44F2E476C2F2000629462A462B46306009F0AFFD44F29078B146C2F2000806AF00210B4630684FF6FF7209F0A2FD44F2E47401280546C2F20004F1D102F0B1FF4FF4807300930BF0B2F838466946FFF7AEFD40F2017398428246834660D00BF0BAF802F0B4FFBAF1000FCC
S38510001E800BD0002445252246D8F8000046490123B460357109F018FCCDE7012004F034FE7D200AF0DFFB012004F056FE53233F4820213222337111F001FF009B012B14D0022B1AD1052339493878C9F8083002F03BFA7878364902F037FAD8F8000032490022012309F0F0FBA5E7022338782F49C9F8083002F028FAEFE72C49387802F08E
S38510001F0023FA78782A4902F01FFA009B052B2ED8022B0BD9274D0224385D294602F014FA009B01349C4205F10305F5D303EB4303013BB360D1E769463846FFF731FE82460BF054F802F04EFFDA4597D157234FF0000A7D202371C4F808A00AF083FB5246211D2B46D8F8000009F0AEFB63E71149B87802F0E9F9009A2E233A4412F8020CB8
S38510001F800D4989F8153089F8163089F8173002F0DBF9009B09493B4413F8010C02F0D4F91223C9F8083098E7E8470020F0470020F3470020F6470020FD4700200048002010B50446204601F053FB0028FAD10A2C00D010BD0D2001F04BFB0028F9D00D2001F046FB0028F5D1F3E700BF0FB42DE9F04FB1B03AAE56F8049B0B96B246B9F1FB
S38510002000000F13D009F1FF3212F8013FA3F10801C9B2C9EB0200002B00F0AC800D2B1BD0203B0229DBB217D95E2B15D9984C14F8017FAFB1384601F01BFB0028FAD10A2FF5D10D2001F014FB0028F0D00D2001F00FFB0028F5D1EAE7B0F5006FD4DDE5E720210DF1700840460A464C464FEAE97511F024FE54EA050C00F06E834CF60C0CFA
S38510002080C1F2030C0F2004EA00022309624443EA057312784FEA151E1C46754608F8072054EA05023B4607F10107ECD11D4618F80540204601F0DCFA0028FAD10A2C00F03F83013DF3D5734D15F8014F7CB1204601F0CEFA0028FAD10A2CF5D10D2001F0C7FA0028FAD115F8014F002CEFD14CF60C09371F1C36C1F2030902964FF00F0ACE
S38510002100202001F0B5FA06460028F9D157F8044F2021E5170A46404611F0D0FD54EA050340F07B834FF030048DF87040354618F80540204601F09CFA06460028F9D10A2C00F05F83013DF2D5029B9F42D8D1524D15F8014F002C00F09580204601F088FA0028FAD10A2CF3D10D2001F081FA0028FAD1EDE74CF628044CF63C05C1F203045F
S38510002180C1F2030507940995002400259B46CDE900454CF60C030DF13008C1F20303CDF80CB0CDF80880069399F80040002C68D0252C56D199F8014000262D2C09BF99F802400025012709F103091ABF089509F102090897302C02BF99F8004001230593A4F1300318BF0025DAB207BF022109F1010901210595092A0AD819F8014B06EBFD
S38510002200860603EB4606A4F13003DAB2092AF4D92E2C00F0BF816C2C00F0AD810023A4F1420136296AD8DFE801F04469446969696969696969696969696969696944696944696969696969696969446944696969696969696969696944696969694469694400204601F004FA0028FAD10A2C15D0039B09F1010999F8004001330393002C8C
S3851000228096D1039E304631B0BDE8F04F04B07047F3C703101FC8031023C803100D2001F0E7F90028E4D00D2001F0E2F90028F5D1DEE7002B00F04B810AF1070104F0DF0321F00705442BD5E9000105F1080ACDE9000140F04981DDE90023002A73F10003A4BF002304930BDADDE900012D23404261EB4101CDE90001049301E0002504957B
S38510002300A4F12503532B55D8DFE813F0B300540054005400540054005400540054005400540054005400540054005400540054005400540054005400540054005400540054005400540045022B02630254005400540054005400540054005400540054005400540054005400AC015400630254005400960154005400540054005400540024
S3851000238054005400540045022B026302540054005400540054005400540054005400540054007E0054005400AC0154006302540054007401252001F05BF90028FAD1204601F056F90028FAD10A2C00F00781039B02330393CBEB06060BF1FF37049C002C52D0059B013E002B41D0049C204601F03FF90028FAD1DDF80CC004900CF1010C22
S38510002400CDF80CC0302445E0302001F031F90028FAD1782001F02CF90028FAD1DDF800B05F46002F40F07C8230238DF870300DF171021CAD13460DF12F0113F8010DAB4201F8010FF9D1571EFF1AD31A434407F1010BC7F1070600221A70049BCDF80880ABB101252B460595013E002BBDD1202410E0252001F0FCF80028ABD0252001F085
S38510002480F7F80028F5D1A5E7059C002CEFD0002504953024089B7BB9751E002E2E460BDD204601F0E5F80028FAD116F1FF36F7D2039C631C5D190395049D002D7CD1BBF1000F40F38980DDF808B0029DBB440BF1010B15F8014B204601F0CAF80028FAD10A2C29D0C5EB0B03002BF2DC039C27EAE773029D611C5A1C013F591815440391A9
S38510002500C3EB070B0295089F002F3FF44DAE002E06F1FF347FF748AE2546202001F0A8F80028FAD115F1FF35F7D2DDF80CC00CF101031C19039437E60D2001F099F80028D0D00D2001F094F80028F5D1CAE7DAF8002004F0DF031046D117442B0AF1040ACDE900013FF4B7AE009800210023CDE900010493C4E699F8004009F101036C2CA1
S3851000258018BF99467FF44AAE99F80140012309F1020944E699F8004009F10109A4F13003DBB2092B06D819F8014BA4F13003DBB2092BF8D905912EE62C46204601F058F80028FAD1DDF80CC0BBF1000F0CF1010CCDF80CC03FF777AFBB4694E70D2001F047F800283FF4F3AE0D2001F041F80028F4D1ECE6DDF800B05F46002F40F07B8113
S3851000260030238DF870300DF171021CAD13460DF12F0113F8010DAB4201F8010FF9D1571EFF1AD31A434407F1010B00221A70CBEB0606CDF80880D1E6DDF800B05846002840F0088130238DF870300DF171021CAD13460DF12F0113F8010DAB4201F8010FF9D1DCE7DAF800500AF1040A02956A1E002D00F0398112F8013F029FA3F1080039
S38510002680C0B2D11B002B00F026810D2B00F0B480203B0228DBB240F2AF805E2B40F2AC80AC4D15F8014F7CB1204600F0E1FF0028FAD10A2CF5D10D2000F0DAFF0028FAD115F8014F002CEFD120211CAD0A46284611F0F4FA029AD31710461946069F0F22024003093A4443EA01730F0939461278184650EA010C2A55274604F10104EDD175
S38510002700EC5D204600F0B4FF0028FAD10A2C00F0B78017F1FF37F3D24CF2F073C1F2030302931D462B78002B00F0DA802B464FF0000B13F8012F0BF1010B002AF9D149E60D2000F095FF00283FF4BBAC0D2000F08FFF0028F4D1B4E430223B468DF87020A4E49AF800400AF1040A204600F080FF0028FAD10A2C03D0039F0137039713E5E8
S385100027800D2000F075FF0028F6D00D2000F070FF0028F5D1F0E7002E53D16FF01F061F274FF0200B002101240D46DDE9000104FA05FC002300EA0C0252EA030C14BF31232E2308F805300135BD42F0DBCDF8088004E6009B002B5FD130238DF870300DF171021CAD13460DF12F0113F8010DAB4201F8010FF9D112E7B1F5006F7FF73BAF4E
S385100028004EE70D2000F034FF00283FF49BAC0D2000F02EFF0028F4D194E4314604EA0A02230943EA05734A44280912781C46054654EA050C08F801200E4601F10101EDD174E4771E002FB3464FF00006AADCCDF80880C3E5069C0DF171030BF00F02A15C5FEA1B1B1A4603F8011C03F10103F4D11CADAA427FF4ECAE4FF0FF374346D4E69E
S385100028800D2000F0F5FE00283FF443AF0D2000F0EFFE0028F4D13CE74CF6CD40099DCCF6CC400DF17101A0FB0342D20802EB8204A3EB4403EC5C134601F8014C0A460131002BF0D11CADAA4202BF9B464FF0FF37434687D1A9E6029D2B78002B7FF426AF9B464FF0FF3779E54CF2E874C1F203040294254616E7DDF81CC00DF171030BF0AC
S385100029000F021CF802105FEA1B1B1A4603F8011C03F10103F3D11CADAA427FF477AEABE7DDF81CC00DF171030BF00F021CF802105FEA1B1B1A4603F8011C03F10103F3D11CADAA4202BF4FF0FF37082643467FF471AD80E547C8031038B5451E15F8014F8CB1204600F084FE0028FAD10A2CF5D10D2000F07DFE0028F0D00D2000F078FEF2
S385100029800028F5D1EAE738BD2DE9F043041E89B0B8BF64424FF0200168460A464FEAE475B4BF4FF02D094FF02B0911F087F954EA05036E4624D13023B9F12D0F8DF800304FF001074FF000033BD00133F51815F8014D204600F04CFE0028FAD10A2C04D0B542F4D109B0BDE8F0830D2000F040FE0028F5D00D2000F03BFE0028F5D1EFE7E7
S38510002A004CF60C08C1F203080027204629460A22002311F0A3F9013718F802E02046F4192946002304F801EC0A2211F097F904460D4654EA0503E8D1B9F12D0F07F1FF33C3D108AA1A4412F8201C20291EBF08AA3B46D2182D2102F8201CB6E7F0B5202189B00446C5170A46684611F027F954EA05021CD130238DF8003000231D461DF83C
S38510002A800540204600F0F4FD0028FAD10A2C03D0013DF4D509B0F0BD0D2000F0E9FD0028F6D00D2000F0E4FD0028F5D1F0E74CF60C0EC1F2030E00260F2004EA00022309724443EA057312782F091C463D460DF8062054EA0502334606F10106EDD1CDE72DE9F04F8BB0149C0DF10808002C0CBF4FF0200B4FF0300B0D460446164659466A
S38510002B0020224046019311F0D9F854EA05022AD130238DF808304FF00109159A019B9145B8BF91462D2B18BF09F1FF393CD009F10105454415F8014D204600F099FD0028FAD10A2C04D04545F4D10BB0BDE8F08F0D2000F08DFD0028F5D00D2000F088FD0028F5D1EFE74CF60C0AC1F2030AF7174FF000092046294632463B4611F0EEF884
S38510002B8009F101091AF802E0204608EB090429463B4604F801EC324611F0E0F804460D4654EA0503E6D1B8E709F1FF330AAA1A4412F8202C5A4508BF99460AAB019A4B4403F8202CB3E700BF2DE9F04F8BB0002B0CBF202330230DF108080446C5170E469346194620224046019311F067F854EA05012AD130238DF808304FF001091499C9
S38510002C008945B8BF8946BBF12D0F18BF09F1FF393CD009F10105454415F8014D204600F027FD0028FAD10A2C04D04545F4D10BB0BDE8F08F0D2000F01BFD0028F5D00D2000F016FD0028F5D1EFE74CF60C0AC1F2030AF7174FF000092046294632463B4611F07CF809F101091AF802E0204608EB090429463B4604F801EC324611F06EF8C7
S38510002C8004460D4654EA0503E6D1B8E709F1FF330AAA1A4412F8202C01998A4208BF99460AAB4B4403F820BCB3E700BF10B480B1421E12F8013FA3F10801C9B2141A7BB10D2B09D0203B0229DBB205D95E2B03D900205DF8044B7047B4F5006FE9DDF7E701205DF8044B7047F0B494B0189FB8B930238DF800300DF101066F46F51B15440B
S38510002D003146134611F8014D03F8014BAB42F9D1F31B1A4418460023137014B0F0BC70470DF10101B0FBF3F403FB14003D5C0E4601F8015C20460131002CF3D16F46BE42DCD1E8E72DE9F04F8946AFB00646174691B14A1E12F8013FA3F10801C9B2C9EB0200002B00F0AE800D2B1BD0203B0229DBB217D95E2B15D98D4C14F8016FAEB159
S38510002D80304600F075FC0028FAD10A2EF5D10D2000F06EFC0028F0D00D2000F069FC0028F5D1EAE7B0F5006FD4DDE5E720210DF168080A4640464C464FEAE97510F07EFF54EA050100F031834CF60C0EC1F2030E0F2004EA00022309724443EA057312784FEA151C1C46654608F8062054EA0502334606F10106ECD11D4618F8054020461D
S38510002E0000F036FC0028FAD10A2C00F00283013DF3D5684D15F8014F7CB1204600F028FC0028FAD10A2CF5D10D2000F021FC0028FAD115F8014F002CEFD13B1F4CF60C09C1F2030900931C374FF00F0A202000F00FFC06460028F9D1009D202155F8044F0A4600954046E51710F028FF54EA050C40F030834FF0300E8DF868E0354618F81E
S38510002E800540204600F0F4FB06460028F9D10A2C00F01483013DF2D5009BBB42D6D1464D15F8014F002C00F00981204600F0E0FB0028FAD10A2CF3D10D2000F0D9FB0028FAD1EDE70020002198464CF628054CF60C034CF63C0CCDE90001C1F20303C1F20305C1F2030CCDF80C800DF1280B06930795CDF824C099F80000002800F0DD80CB
S38510002F00252840F0CF8099F8015000242D2D0BBF99F8025000230123089306BF089309F1030909F10209302D06BF99F80050012300230593A5F13003DAB206BF022109F101090121092A0AD819F8015B04EB840403EB4404A5F13003DAB2092AF4D92E2D00F0D1806C2D00F0BF800023A5F1420136293AD8DFE801F0223922393939393929
S38510002F80393939393939393939393922393922393939393939393939223922393939393939393939393922393939392239392200F3C703101FC8031023C80310002B00F08180F91D05F0DF0321F0070C442BDCE900010CF10807CDE900017ED1DDE90023002A73F10003C0F2898200230493A5F12503532B00F24582DFE813F01C02430299
S3851000300043024302430243024302430243024302430243024302430243024302430243024302430243024302430243024302430243024302430223026701EE01430243024302430243024302430243024302430243024302430243026F014302EE0143024302510143024302430243024302430243024302430223026701EE0143024302BE
S385100030804302430243024302430243024302430243021A01430243026F014302EE01430243029700B04709F10109039B99F800000133039300287FF423AF039E30462FB0BDE8F08F3A6805F0DF031046D117442B07F10407CDE9000180D0009800210023CDE90001049382E799F8005009F101036C2D18BF99467FF438AF99F80150012317
S3851000310009F1020932E799F8005009F10109A5F13003DBB2092B06D819F8015BA5F13003DBB2092BF8D905911CE7DDF800804046002840F02B8230238DF868300DF169021AAD13460DF1270113F8010DAB4201F8010FF9D1511EC3EB010A0DF1280BD31A5B440AF101080022C8EB04041A700DF1280B049D002D00F02781059D013C002DA2
S3851000318000F08B800498B047DDF80CC000230CF1010CCDF80CC004933025089B93B904F1FF3C002CCDF814C064460BDD013C2846B047621CFAD1039DDDF814C06B1C9C44CDF80CC0049B002B40F06C81B8F1000F40F372815D4615F8010BB047C5F1010353445B44002BF6DCDDF80CC02AEAEA730CF101000AF1FF315A1C18440390C3EB8B
S3851000320001089344089B002B3FF475AE002C04F1FF357FF770AE2C46013C2020B047631CFAD1DDF80CC00CF101035D19039562E63020B0477820B047DDF800804046002840F0DC8130238DF868300DF169021AAD13460DF1270113F8010DAB4201F8010FF9D1511EC3EB010A0DF1280BD31A5B440AF10108CAF1070400221A70049B0DF1CD
S38510003280280B002B00F0A48001231D4605930DF1280B013C002D7FF475AF20257DE7DDF800804046002840F05B8130238DF868300DF169021AAD13460DF1270113F8010DAB4201F8010FF9D144E7039B387801333C1D03932746B0470DE6D7F800B007F1040A0BF1FF32BBF1000F00F0118112F8013FA3F10800C0B2CBEB0201002B4CD00B
S385100033000D2B00F0CA80203B0228DBB240F2C5805E2B40F2C280B84D15F8017F7FB1384600F0A6F90028FAD10A2FF5D10D2000F09FF90028FAD115F8017F002FEFD120211AAD0A46284610F0B9FCDDF818C058464FEAEB710F220240030943EA01734FEA111E624412781846714650EA010EEA55B84607F10107EDD115F80870384600F0FB
S3851000338077F90028FAD10A2F00F0D08018F1FF38F2D24CF2F07BC1F2030B9BF80030002B00F0BF805B464FF0000813F8012F08F10108002AF9D1049D5746C8EB040408F1FF3A002D7FF4D9AE059B002B3FF465AF002504953025E0E6009B002B40F0E98030238DF868300DF169021AAD13460DF1270113F8010DAB4201F8010FF9D1511E34
S38510003400C3EB010A0DF1280CD31A63440AF10108A9E60D2000F02CF900283FF4F8AC0D2000F026F90028F4D1F1E4302233468DF86820E1E42520C8EB0404B04708F1FF3A97E6002C7ED16FF01F0C4FF01F0A4FF02008002001250446DDE9000105FA04FB002300EA0B0252EA030B14BF31232E230AAA135501345445F0DB64460DF1280B0D
S3851000348077E62520B047039B284602330393C8EB0404B04708F1FF3A6BE6B1F5006F7FF726AF38E71846B047039DB8F1000F05F1010503953FF78EAED046A3E60D2000F0D7F800283FF4E6AC0D2000F0D1F80028F4D1DFE4314604EA0A02230943EA057328094A4412781C46054654EA050008F801200E4601F10101EDD1BFE4DDE90001C5
S385100035002D23404261EB4101CDE9000104936EE54CF2E87BC1F2030B9BF80030002B7FF441AF574698464FF0FF3A22E60D2000F09FF800283FF42AAF0D2000F099F80028F4D123E704F1FF3ABAF1000FA046DCBF0DF1280B00247FF70CAE4FF0000C78E7069D0DF1690308F00F02A95C5FEA18181A4603F8011C03F10103F4D11AADAA42E5
S385100035807FF499AE4FF0FF3A0AABECE5079D0DF1690308F00F02A95C5FEA18181A4603F8011C03F10103F4D11AADAA427FF4C9ADE8E74CF6CD40DDF824B0CCF6CC400DF16901A0FB0352D20802EB8205A3EB45031BF80350134601F8015C0A460131002BEFD11AADAA4202BF98464FF0FF3A0AAB7FF4FCAEB7E500BF47C80310079D0DF149
S38510003600690308F00F02A95C5FEA18181A4603F8011C03F10103F4D11AADAA4202BF4FF0FF3A08240AAB7FF413AE25E610B543F20D6386B0C1F200030593059A00204FF4E134032102238DF8093004948DF808108DF80C008DF80A008DF80D008DF80B00009202AB0ECB03F07BFD06B010BD00BF0146002003F046BE704700BF00B500230C
S3851000368085B001228DF808208DF809308DF80A308DF80B308DF800301021029B022002F05DF905B05DF804FB0122134610B50220102102F063FC034600B110BD022010210122BDE8104002F059BC00BF2DE9F00F01277A1E44F6240349F2B00648F2B005012A86B0C2F20003C4F20006C4F2000500F04E81022A40F0358149F6FC714AF241
S38510003700B005C4F20001C4F2000551F8040F46F268125C18CBF6FF722244A9421060F4D10022C4F2020211680422C3F80C13C4F2020211680822C3F81013C4F2020211680C22C3F81413C4F2020211681022C3F81813C4F2020211681422C3F81C13C4F2020211681822C3F82013C4F2020211681C22C3F82413C4F2020211682022C3F873
S385100037802813C4F2020211682422C3F82C13C4F2020211682822C3F83013C4F2020211682C22C3F83413C4F2020211683022C3F83813C4F2020211684FF48052C3F83C13C4F20202116841F20402C3F84013C4F20202116841F20802C3F84413C4F20202116841F20C02C3F84813C4F20202116841F21002C4F20202C3F84C13116841F2AC
S385100038001402C3F85013C4F20202116841F21802C3F85413C4F20202116841F21C02C3F85813C4F2020211684FF48152C3F85C13C4F20202116841F22402C3F86013C4F20202116841F22802C3F86413C4F20202116841F22C02C3F86813C4F20202116841F23002C3F86C13C4F2020212684FF40051C3F870231422C4F20102C4F201016A
S385100038800292012210200391511E4FF4805B41F2040A41F2080941F20C0841F2100C41F21407042608250C24C4F201000129C4F2010BC4F2010AC4F20109C4F20108C4F2010CC4F20107C4F20106C4F20105C4F2010401902ED0C0F0F480022968D1039842F204010068C4F20101C3F84C020968C3F8501242F20801C4F201010968C3F85F
S38510003900541242F20C01C4F201010968C3F8581242F21001C4F201010968C3F85C1242F21401C4F201010968C3F860120132511E0129D0D1DBF80010C3F83412DAF80010C3F83812D9F80010C3F83C12D8F80010C3F84012DCF80010C3F844123968C3F84812E3E747F6FC72C4F2000252F8040F991801F14041A1F50041AA420860F5D1AD
S38510003980032F3FF4CDAE01377A1E012A7FF4B2AE48F6FC71C4F2000151F8040F47F2B4025C18CBF6FF722244B1421060F4D1EAE7062ABBD149F21002C4F20102029249F21C02C4F2010249F20C09C4F2010904920122CDF81490914649F2140049F2180109F1FF3249F2040B49F2080A48F2040848F2080C48F20C0748F2100648F21405F7
S38510003A00C4F20100C4F20101012AC4F2010BC4F2010A03900191C4F20108C4F2010CC4F20107C4F20106C4F2010500F086804FF4004448F2180048F21C01022AC4F20104C4F20100C4F2010153D14FF42042C4F2010211684AF20402C3F8EC12C4F2010211684AF20802C3F8F012C4F2010211684AF20C02C3F8F412C4F2010211684AF2E3
S38510003A801002C3F8F812C4F2010211684AF21402C3F8FC12C4F2010211684AF21802C3F80013C4F2010211684AF21C02C3F80413C4F201021268C3F8082306B0BDE8F00F70470021C4F2010109680198C3F81C123168C3F820122968C3F824122168C3F828120168C3F82C1202990868C3F830021CE72268B9F1030FC3F8AC22D8F8002040
S38510003B00C3F8B022DCF80020C3F8B4223A68C3F8B8223268C3F8BC222A68C3F8C0220268C3F8C4220A68C3F8C822C6D009F1010909F1FF32012A7FF47AAF4FF41042C4F2010212680598C3F8CC22DBF800200299C3F8D022DAF80020C3F8D42202680398C3F8D8220A680199C3F8DC2202680498C3F8E0220A68C3F8E4220268C3F8E82246
S38510003B80D4E700BF08B54CF65C00C1F20300FEF72DFA002008BD00BF4CF67000F8B5C1F20300FEF723FA44F62406C2F200060025342404FB05644CF684002946C1F20300FEF714FA4CF69000D4F80C13C1F20300FEF70CFA4CF6A000D4F81013C1F20300FEF704FA4CF6B000D4F81413C1F20300FEF7FCF94CF6C000D4F81813C1F2030030
S38510003C00FEF7F4F94CF6D000D4F81C13C1F20300FEF7ECF94CF6E000D4F82013C1F20300FEF7E4F94CF6F000D4F82413C1F20300FEF7DCF94CF60010D4F82813C1F20300FEF7D4F94CF61010D4F82C130135C1F20300FEF7CBF9022DAAD10020F8BD00BF4CF62010F8B5C1F20300FEF7BFF944F62407C2F2000700244CF63810214604EB8A
S38510003C804405C1F2030007EBC505FEF7AFF94CF64410D5F81C12C1F20300FEF7A7F94CF65810D5F82012C1F20300FEF79FF94CF66C10D5F82412C1F20300FEF797F94CF67C10D5F82812C1F20300FEF78FF94CF69410D5F82C120134C1F20300FEF786F9062CC9D10020F8BD4CF6A810F8B5C1F20300FEF77BF944F62406C2F20006002590
S38510003D004CF6BC102946C1F2030006EB4514FEF76DF94CF61010D4F8AC12C1F20300FEF765F94CF69000D4F8B012C1F20300FEF75DF94CF6A000D4F8B412C1F20300FEF755F94CF6C810D4F8B812C1F20300FEF74DF94CF6D810D4F8BC12C1F20300FEF745F94CF6D000D4F8C012C1F20300FEF73DF94CF6E810D4F8C412C1F20300FEF72C
S38510003D8035F94CF6FC10D4F8C8120135C1F20300FEF72CF9032DB3D10020F8BD0020704710B432B192000023CC58C45004339342FAD15DF8044B704744F2E073C2F20003196844F2DC7210B4C2F2000200240131146001205DF8044B196003F015B800BF10B54CF61024C1F2030420464FF48071FCF790FA0020FCF7B9FA04F54072342048
S38510003E005721BDE81040FCF7D3BA00BF70B54CF61024C1F2030482B020464FF48071FCF779FA40F2545500200646C2F20005FCF79DFA04F543732A46009668200C21FCF72BFB04F5457305F11C02009659202821FCF722FB04F56D7221200C21FCF7A8FA04F5707207204821FCF7A2FA04F5737271204821FCF79CFA04F57672DB20482144
S38510003E80FCF796FA04F5797207209B21FCF790FA04F57C7271209B21FCF78AFA04F57F72DB209B2102B0BDE87040FCF781BA00BF10B5002082B04CF61024FCF757FAC1F20304002140F2545204F547730091C2F200025E200C21FCF7DFFA04F56D7221200C21FCF765FA04F5816262204521FCF75FFA04F214428720BF2102B0BDE810408E
S38510003F00FCF756BA10B5002082B04CF61024FCF72DFAC1F20304002140F2545204F56B730091C2F200025E200C21FCF7B5FA04F56D7221200C21FCF73BFA04F5846262204521FCF735FA04F214428720BF2102B0BDE81040FCF72CBA10B5002082B04CF61024FCF703FAC1F20304002140F2545204F549730091C2F2000265200C21FCF7E8
S38510003F808BFA04F56D7221200C21FCF711FA04F22C4262204521FCF70BFA04F214428720BF2102B0BDE81040FCF702BA10B5002082B04CF61024FCF7D9F9C1F20304002140F2545204F54B730091C2F2000276200C21FCF761FA04F56D7221200C21FCF7E7F904F587627C204521FCF7E1F904F214428720BF2102B0BDE81040FCF7D8B999
S3851000400070B5002040F254554CF6102482B0C1F203040646C2F20005FCF7A8F92A4604F54D73009668200C21FCF736FA04F54F7305F11C0200966A202821FCF72DFA04F56D7221200C21FCF7B3F904F2444280205221FCF7ADF904F214428720BF2102B0BDE87040FCF7A4B970B5002040F254554CF6102482B0C1F203040646C2F2000568
S38510004080FCF774F92A4604F55173009668200C21FCF702FA04F5537305F11C02009659202821FCF7F9F904F56D7221200C21FCF77FF904F58A6277205221FCF779F904F214428720BF2102B0BDE87040FCF770B970B5002040F254554CF6102482B0C1F203040646C2F20005FCF740F92A4604F55573009660200C21FCF7CEF904F5577334
S3851000410005F11C0200964F202821FCF7C5F904F56D7221200C21FCF74BF904F25C420C20BF21FCF745F904F214428720BF21FCF73FF904F58D6240F20310BF2102B0BDE87040FCF735B900BFF0B54CF61024C1F2030404F2744783B03A460D204A21FCF727F9134D3A460D206C21FCF721F900263A460D208F21FCF71BF904F559732A46CC
S3851000418000962F204B21FCF787F904F55B732A4600962F206D21FCF77FF904F55D7300962A462F209121FCF777F903B0F0BD00BF8C050020F0B54CF61024C1F2030404F2744783B03A460D204A21FCF7F1F8134D3A460D206C21FCF7EBF800263A460D208F21FCF7E5F804F55F732A4600962F204B21FCF751F904F561732A4600962F2072
S385100042006D21FCF749F904F5637300962A462F209121FCF741F903B0F0BD00BF8C050020F0B54CF61024C1F2030404F2744783B03A460D204A21FCF7BBF8134D3A460D206C21FCF7B5F800263A460D208F21FCF7AFF804F565732A4600962F204B21FCF71BF904F567732A4600962F206D21FCF713F904F5697300962A462F209121FCF7A7
S385100042800BF903B0F0BD00BF8C05002010B54CF61024C1F2030420464FF48071FCF73AF80020FCF763F804F5407234205721BDE81040FCF77DB800BF10B54CF61024C1F2030404F590604FF48071FCF723F8002004F5F0620146BDE81040FCF769B800BF10B54CF61024C1F2030404F28C704FF48071FCF70FF8002004F68C220146BDE8FC
S385100043001040FCF755B800BF10B488B944F69831522444F29073C2F20001C2F2000301F8044F02465DF8044B1868012307F0E6BA44F69833C2F20003002118680A460B465DF8044B07F0DABA70B4030900F00F0003F1300603F1370500F1300400F13702092B94BF33462B46092894BF204610460B70487070BC704710B584B05022002328
S385100043801E2168468DF800200193029103F0CEFA4AF210410446112004F038F842F26171102004F033F844F2E920C1F2000004F009FC204604B010BD2DE9F047C6B0FFF7DBFF012007F076FA44F698360021C2F200060A460B46306007F0D6FA44F6C44744F29078B146C2F20007C2F2000800210B4630684FF6FF7207F0C6FA44F698347C
S3851000440001280546C2F20004F1D13B6868469B6ADA6922F48062DA6103F042FF009B13F0800A04D004F0B6F900F0DCFCDFE700F0C3FC50231E2202A88DF808300492CDF80CA003F073FA4AF21041112003F0DEFF42F26171102003F0D9FF44F2E920C1F2000004F0AFFB4FF4807306A801A9019304F0FAF958B12B4652464525211DD8F829
S385100044800000C4F808A0257107F01EF9CAE7532304F10C002021322223710FF00FFC019B012B2CD0022B3DD19DF8183005211A09092A03F00F038CBF37323032092B32738CBF03F1370203F130029DF8193072731A09092A03F00F038CBF37323032092B8CBF37333033A160F27389F81030D8F8000064490022012307F0E6F892E79DF80C
S38510004500183002211A09092A03F00F038CBF37323032092B8CBF37333033A160327389F80D30E4E79DF818201109092902F00F028CBF37313031092A31738CBF02F1370102F130019DF8192071731109092902F00F028CBF37313031092A8CBF37323032052BF173327455D8022B4ED99DF81A20110901F1370002F00F0201F130050929A6
S3851000458094BF2946014602F1300402F13700092A94BF22460246032B89F8121089F8132033D09DF81B20110901F1370002F00F0201F13005092994BF2946014602F1300402F13700092A94BF22460246052B89F8151089F8162018D19DF81C20110901F1370002F00F0201F13005092994BF2946014602F1300402F13700092A94BF224660
S38510004600024689F8181089F8192003EB4303013BB3606CE79DF81A202E20110909298CBF37313031B17406A9194411F8024C02F00F022109092A8CBF3732303209298CBF37313031717606A9F2740B4404F00F02092A13F8013C8CBF37323032B2761A09092A03F00F038CBF37323032092B32778CBF3733303312227075B075F0757377E6
S38510004680B26034E79C4B002000BF70474FF40043C4F200034FF000522DE9F0411A62FFF7F3FF4FF0006410F020024FF4004814BFDC611C62C4F20008D8F80C304FF4104443F000630126C8F80C30C4F20004374606234FF0006C12E0C8F81CC0FFF7D4FFE661FFF7D1FF4FF410424000013BC0B2C4F200024FF0010507D000F02002276226
S38510004700002AE9D1C8F820C0E8E74FF40046C4F200064FF000641562F461FFF7B5FFD561FFF7B2FF1562FFF7AFFFD561FFF7ACFF2B4608200F0613624CBFF4613462FFF7A3FFD561FFF7A0FF49000138C9B2F1D1FFF79AFF4FF40043C4F200034FF00052DA61DA6822F00062DA60FFF78DFFFFF78BFFBDE8F08100BF2DE9F0414FF45443E6
S3851000478044F218664FF4805784B04FF0000EC2F20203C4F2030701240225C2F200063360C7F810E0C7F800E08DF80AE08DF80BE08DF808408DF809508DF800E0029B204629461B228DF80CE001F0C8F88046002840F0D38029462A462346204601F03CFA294603222346204601F036FA294604222346204601F030FA294606222346204685
S3851000480001F02AFA294607222346204601F024FA294608222346204601F01EFA294609222346204601F018FA29460A222346204601F012FA29460B222346204601F00CFA29460C222346204601F006FA29460D222346204601F000FA29460E222346204601F0FAF929460F222346204601F0F4F9294610222346204601F0EEF929461122B3
S385100048802346204601F0E8F9294612222346204601F0E2F9294613222346204601F0DCF9294614222346204601F0D6F9294615222346204601F0D0F9294616222346204601F0CAF9294617222346204601F0C4F9294618222346204601F0BEF9294619222346204601F0B8F929461A222346204601F0B2F929461B222346204601F0ACF976
S3851000490029461C222346204601F0A6F9294623461D22204601F0A0F9F2684FF68013C0F2373393FBF2F343F44F033B60B2687369013A42EA03437B60B2693369013A42EA0343BB60336AF169726A581E73680006013940EA0121013A1B110A43013B42EA0343FB6032684FF46073C0F24003BA61C7F82080C7F828803B6104B0BDE8F081D3
S385100049804FF48053C4F203031A6942F001021A61704700BF4FF48053C4F203031A6922F001021A61704700BF4FF48053C4F203031A69042822F001021A6112D0082807D11A6922F4E0621A611A6942F440721A614FF48053C4F203031A6942F001021A6170471A6922F4E0621A611A6942F400721A61EDE74FF40042C4F200024FF08053B9
S38510004A002DE9F0411362D1684FF0005341F08051D160106E4FF4104120F080501066506EC4F2000120F0805050661468012044F080541460D361D468642344F00054D460146E24F000541466546E24F000545466146844F000541460C861C86840F00100C860086E20F001000866486E20F001004866086840F001000860886E20F001003B
S38510004A808866116E21F000611166516E21F000615166116841F000611160FFF7F5FD013BFBD14FF40043C4F200034FF08052DA61FFF7EAFD4FF000521A62FFF7E5FD4FF000621A62D9684FF4104011430125D9609C469046C4F200002F4606230762CCF82080FFF7D1FD4FF41041C5614FF40042C4F20001C4F20002FFF7C6FD013B4FF086
S38510004B0001044FF00066E9D10C621662FFF7BCFDCC61FFF7B9FD0C62D068254620F00060D060FFF7B1FDCC61FFF7AEFD2646174608240E62FFF7A8FDCD61786A4FF40042C0F3C06040EA4303DBB2C4F20002FFF79BFD013CEDD1FFF797FD4FF00051D161D16821F00061D160FFF78EFDFFF78CFD013BDBB2FD2B04D90D20C7F20000BDE803
S38510004B80F0816B210E20FFF781FD24210F20FFF77DFD2046BDE8F08130B5012083B002461E2101F0E5F800240223694601AAA425702001938DF800508DF8014006F02CF944F6D830C2F20000214622462346006806F094FE012002461E2101F0EDF803B030BD00BF2DE9F04700218CB028220546A9240FF063F8012308AA70200DF11601F0
S38510004C008DF81640089306F007F910B10CB0BDE8F087042008A906F02DFA0028F6D1702006F09CF90028F1D10AA806F0FFFA0A9B13F0110FF8D102A808A906F0E1F90028E4D1089B012B03D00D20C7F20000DDE79DF80820002AF7D10224702004A908AA08938DF8104006F0D7F80028CED1042008A906F0FFF90028C8D1702006F06EF97C
S38510004C800028C3D10AA806F0D1FA0A9B13F0110FF8D1684608A906F0B3F90028B6D1089B012BD1D19DF80020052A84BF0220C7F20000ABD82A6270200DF1170108AA8DF81730089306F0A8F800289FD1042008A906F0D0F9002899D1702006F03FF9002894D10AA806F0A2FA0A9B13F0110FF8D102A808A906F084F9002887D1089C012C5A
S38510004D00A2D19DF808209DF8003085F82420002B50D046F26C7681462746C1F208064FF004087020311908AA089706F075F800287FF46CAF042008A9CDF8208006F09AF900287FF463AF702006F008F900287FF45DAF0AA806F06AFA0A9B13F0110FF8D106A808A906F04CF900287FF44FAF089B042B7FF469AF9DF81A009DF81B209DF89F
S38510004D80183000F00F0002EB00209DF819C09DF8002003F00F0A013499090CEB0A2C05EB09039442A3F802C0988005F8091009F10609B6DD002029E730B5012083B002461E2100F0D5FFA42502230024694601AA70208DF800508DF80140019306F01CF803B030BD30B5012083B002461E2100F09BFFA42502230124694601AA70208DF8C8
S38510004E0000508DF80140019306F006F803B030BD70B54FF4D4538EB044F67934C0F20603C1F20004012506220AA80A930D940B950C9205F0A7FF08B10EB070BD8DF820008DF821008DF80050089B28461E212A4600F084FD0646002EEED122465021192001F0B4F98DF820508DF80060089B28461F212A4600F072FD0028DDD11F212A4643
S38510004E802B46284601F07AF8A92304AA70200DF10F0104958DF80F3005F0BEFF0028CBD1042004A906F0E6F80028C5D1702006F055F80028C0D106A806F0B8F9069B13F0110FF8D102A804A906F09AF80028B3D1049B012B03D00D20C7F20000ACE79DF80820002AF7D1A425022404A906AA70208DF811308DF81050069405F08DFF9BE729
S38510004F0030B5054685B0012002461F2103AB01F063F804464CB9022D09D0032D1DD0012D1CBF0220C7F2000012D005B030BD039BE3B1A52501240223694602AA70208DF800508DF80140029305F066FF05B030BD039B93B1A5250024EDE7012002461F21234601F00BF8204605B030BD0120024603461F2101F002F8DBE728462A462B463A
S38510004F801F2100F0FBFFE5E72DE9F04705468CB0002831D0002128220EF090FEA924012308AA70200DF116018DF81640089305F033FF10B10CB0BDE8F087042008A906F059F80028F6D1702005F0C8FF0028F1D10AA806F02BF90A9B13F0110FF8D102A808A906F00DF80028E4D1089B012B09D00D20C7F20000DDE70320C7F200000CB078
S38510005000BDE8F0879DF80820002AF1D10224702004A908AA08938DF8104005F0FDFE0028C8D1042008A906F025F80028C2D1702005F094FF0028BDD10AA806F0F7F80A9B13F0110FF8D1684608A905F0D9FF0028B0D1089B012BCBD19DF80020052A03D90220C7F20000A5E72A6270200DF1170108AA8DF81730089305F0CEFE002899D181
S38510005080042008A905F0F6FF002893D1702005F065FF00288ED10AA806F0C8F80A9B13F0110FF8D102A808A905F0AAFF002881D1089C012C9CD19DF808209DF8003085F82420002B50D046F26C7681462746C1F208064FF004087020311908AA089705F09BFE00287FF466AF042008A9CDF8208005F0C0FF00287FF45DAF702005F02EFF9D
S3851000510000287FF457AF0AA806F090F80A9B13F0110FF8D106A808A905F072FF00287FF449AF089B042B7FF463AF9DF81A009DF81B209DF8183000F00F0002EB00209DF819C09DF8002003F00F0A013499090CEB0A2C05EB09039442A3F802C0988005F8091009F10609B6DD002023E730B4029C9042B4BF00250125A042C8BF002528463C
S385100051803DB1039A9942B4BF002001209142C8BF002030BC704700BF2DE9F04F91B007F0EFF80590FFF734FE012006F083FB44F6D8340021C2F200040A460B46206006F0E3FB44F2887A44F29079C2F2000AC2F2000906AD012002461E2100F0A5FD00210B4620684FF6FF7206F0CEFB0128F6D12846FFF7F7FC0028ECD1DDF83880B8F119
S38510005200000F00F0BF80064607464146019455E01E2900F0768140F3C080322900F071813C2940F07F8105EB060BBBF80210BBF80430A1F1870080B2302800F27181A3F1BF0080B2272800F26B81DDF804E00123D9F80000B5494FF043048EF8044006F033FABBF80220BBF80430773A92B24E2A0FD8523B9BB24E2B0BD84FF0310E019C17
S38510005280D9F80000A9490022012384F804E006F01BFA6FF05B0302A98DF808307020022304AA4FF001048DF80940049305F0B4FD0E9901378F4206F1060662D2AB5D13F0FD02F6D1DAF800105A2900F009819FDD40F26D23994200F0038140F3F58040F2C623994205D0B1F5347F02D0B1F52F7FCFD105EB060BBBF80220BBF80430A2F147
S38510005300870189B2302915D8A3F1BF0189B2272910D8DDF804E000220123D9F8000083494FF043048EF8044006F0CEF9BBF80220BBF80430A2F10C0189B2302914D8A3F1BF0189B227290FD8019C4FF0410E00220123D9F80000754984F804E006F0B4F9BBF80220BBF804306FF481710A4492B2302A8ED8BF3B9BB2272B8AD84FF0420E0C
S385100053807DE7019C05A8322107F01CF92846FFF729FC0E9B9845F5D01CE70A2940F0AE8005EB060BBBF80210BBF80430C81F80B25D2800F2B380A3F1480080B2462800F2AD80019C4FF0310E0123D9F80000574984F804E006F078F9BBF80220BBF80430A2F1710189B25D2914D8A3F1480189B246290FD8019C4FF0320E00220123D9F891
S3851000540000004A4984F804E006F05EF9BBF80220BBF80430A2F1DB0189B25D2914D8A3F1480189B246290FD8019C4FF0330E00220123D9F800003D4984F804E006F044F9BBF80220BBF80430911F89B25E2914D8A3F19B0189B246290FD8019C4FF0340E00220123D9F80000304984F804E006F02BF9BBF80220BBF80430A2F1710189B244
S385100054805D2914D8A3F19B0189B246290FD8019C4FF0350E00220123D9F80000234984F804E006F011F9BBF80220BBF80430DB3A92B25D2A3FF6EDAE9B3B9BB2462B3FF6E8AE4FF0360EDAE6B1F5167F7FF7E1AE40F25A23994203DD093399427FF4D9AEDDF804E04FF04304D9F800000F49002201238EF8044006F0E7F8CAE614297FF4EB
S38510005500C8AEAB195A889B88873A92B2302A3FF6C0AEBF3B9BB2272BE2D9BAE60A465FE70A46A2E628297FF4B4AEEAE7DC4B0020FEE700BF002818BF002908BF0320F0B414BF0023012308BFC7F2000001D1F0BC704702F00304022C54D0032C0DD0012C0BD0920818BF920004D0CC58C45004339342FAD10020F0BC70470B1D041DA14217
S3851000558038BF984234BF0023012341EA0004092A94BF002303F0010314F0030F14BF002303F001031BB3002A14BF17460127BC084FEA840C002C4DD000231D46CE580135A542C65003F10403F8D36745D2D011F824500CF101039A4200F82450CAD9CD5C5C1CA242C554C5D90B5D0355C2E7CC5CC45401339A42BDD9CC5CC45401339A425B
S38510005600F5D8B7E70C1D051DA94238BFA04234BF00240124560841EA00050C2E94BF002404F0010415F0030F14BF002404F00104A4B1920857001C46CD5801349442C55003F10403F8D3BE4294D031F8173020F817308FE70C7801230470C0E776002346CA5AC2520233B342FAD183E743780178C2781B0443EA01638078134343EA0020D1
S38510005680704700BF0278407840EA0220704700BFF0B482B3031D0C1DA04238BF994234BF0023012340EA0104092A94BF002303F0010314F0030F14BF002303F00103E3B195080023AE001C46CF580134AC42C75003F10403F8D3B2420DD011F82530741CA24200F8253006D90D5DB31C9A42055501D9CA5CC254F0BC7047CC5CC454013392
S385100057009342F8D0CC5CC45401339342F5D1F2E7F0B482B3031D0C1DA04238BF994234BF0023012340EA0104092A94BF002303F0010314F0030F14BF002303F00103E3B195080023AE001C46CF580134AC42C75003F10403F8D3B2420DD011F82530741CA24200F8253006D90D5DB31C9A42055501D9CA5CC254F0BC7047CC5CC4540133F6
S385100057809342F8D0CC5CC45401339342F5D1F2E7F0B4560826D0031D0C1DA04238BF994234BF0023012340EA01040C2E94BF002303F0010314F0030F14BF002303F0010393B19208002357001C46CD5801349442C55003F10403F8D3BE4203D031F8173020F81730F0BC70477600CA5AC2520233B342FAD1F0BC7047920810B406D094006E
S385100058000023CA58C2500433A342FAD15DF8044B704700BF4FF080410028486009DB48F2A163C0F2010301E0013B02D04A681042FAD17047012303FA00F04FF080425060704700BF80014FF080439860704700BF4FF080439B68C3F382130370704700BF072803D90220C7F2000070474FF080431A69194642F001021A610B694FF0804295
S3851000588003F00303032BF8D15369114643F0010353614B694FF0804203F00303032BF8D19368114643F4007343EA801090608B689B04FCD500207047034660B14FF0804291684FF47342C1F38211C0F26F620A4100201A6070470320C7F20000704700BF034660B14FF0804291684FF47342C1F38211C0F26F620A4100201A607047032043
S38510005900C7F20000704700BF68B14FF080439A684FF47343C2F38212C0F26F6313415B080360002070470320C7F20000704700BF4FF080434FF000425A6070474FF080431A6842F010021A60704700BF4FF080431A6822F010021A60704700BF82B02DE9F00344F61844C2F2000425680793EDB94FF08043D3F804C04FF400474FF410466E
S385100059804FF42045C4F200054CF01C0CC4F20007C4F20006A561A76026611D46C3F804C06B6813F01C0FFBD101232360022884BF0220C7F2004004D81F2906DD0320C7F20040BDE8F00302B07047002AF6DBC1F120039A42F2DC4FF0FF3303FA02F2D54305FA01F1C00023189B68ED439E69CA432E409E615F6B9DF820602F405F63D3F84C
S38510005A004CC09DF81C7005EA0C05DD649D699DF81DC015409D615D6B15405D63DD6C1540DD64DD681540DD60D3F860805D6E032EC4D8DFE806F026221E0241EA08060D431E66BCF1010F5D661D689E6E20D01CD3BCF1020FB2D115400E43012F1D609E6602D1DA681143D9602044012303710020A7E702EA08060D43E2E741EA080615405A
S38510005A80DEE702EA08061540DAE70D431640E4E715401640E1E700BF4FF080414A6848F2A16342F007024A60C0F2010301E0013B02D04A685207FAD10020704744F61843C2F2000303EBC0018B68002210B49C699A6102285C6B5A63DC6C88BF0220DA6497BFD868C7F200401046DA6098BF0A715DF8044B704700BF82B070B4022888BFAE
S38510005B000220049388BFC7F2004004D81F2905DD0320C7F2004070BC02B07047002AF7DBC1F120039A42F3DC4FF0FF3303FA02F2D24302FA01F144F61843C2F2000303EBC0039B68CA439C699DF8140014409C615C6B14405C63DC6C1440DC64DC681440DC601D6E5C6E0328D2D8DFE800F01F1C19020D430C439DF811001D6601285C66FE
S38510005B801C689D6E18D014D30228C1D114400D439DF810201C60012A9D6610D00020BAE715400C43E7E70D431440E4E715401440E1E70C431540EBE714401540E8E7DA6800201143D960A6E7022888BF022070B488BFC7F2004004D81F2A04DD0320C7F2004070BC7047002BF8DBC2F12004A342F4DC4FF0FF3404FA03F344F61844C2F2CF
S38510005C00000404EBC0008468DB43256E606E0329E4D8DFE801F019120C0203FA02F242EA0501024321660020626670BC704703FA02F225EA02010243F4E703FA02F242EA050120EA0202EDE703FA02F2D24302EA05010240E6E700BF022888BF022030B488BFC7F2004004D81F2A04DD0320C7F2004030BC7047002BF8DBC2F12004A34239
S38510005C80F4DC4FF0FF3404FA03F344F61844C2F2000404EBC0008468012920686FEA0303A56E0CD012D30229E0D103FA02F220EA02012A4321600020A26630BC704703FA02F2D24302EA00012A40F3E703FA02F242EA000125EA0202ECE700BF022803D90220C7F2004070471F2903DD0320C7F200407047002AF9DBC1F120039A42F5DCAA
S38510005D004FF0FF3303FA02F2D24302FA01F144F61843C2F2000303EBC0039B680020DA681143D960704700BF022803D90220C7F2004070471F2903DD0320C7F200407047002AF9DBC1F120039A42F5DC4FF0FF3303FA02F2D24302FA01F144F61843C2F2000303EBC0039B6800209963704700BF022803D90220C7F2004070471F2903DDF9
S38510005D800320C7F200407047002AF9DBC1F120039A42F5DC4FF0FF3303FA02F2D24302FA01F144F61843C2F2000303EBC0039B680020D963704700BF022803D90220C7F2004070471F2903DD0320C7F200407047002AF9DBC1F120039A42F5DC4FF0FF3303FA02F2D24302FA01F144F61843C2F2000303EBC0039B6800209964704700BFB8
S38510005E00022888BF022010B488BFC7F2004002D95DF8044B70471F2905DD0320C7F200405DF8044B7047002AF7DBC1F12004A242F3DC4FF0FF3404FA02F2D24302FA01F144F61842C2F2000202EBC00292680020126C11401960DBE7022803D90220C7F2004070471F2903DD0320C7F200407047002AF9DBC1F120039A42F5DC4FF0FF33D1
S38510005E8003FA02F2D24302FA01F144F61843C2F2000303EBC0039B680020DA6822EA0101D9607047003018BF0120012B88BF002018B10320C7F2004070471F29F9D8C1F120019142F5D3704744F61843C2F2000303EBC000836800209961704744F61843C2F2000303EBC000836800209B690B60704700BF44F61843C2F2000303EBC00009
S38510005F00836800205B6A0B60704700BF10B491B16AB144F61843C2F2000303EBC0039C6892000023C85804339342A061FAD100205DF8044B70470320C7F200005DF8044B704700BF10B491B16AB144F61843C2F2000303EBC0039C6892000023606AC85004339342FAD100205DF8044B70470320C7F200005DF8044B704700BF022888BFA8
S38510005F80022010B488BFC7F2004002D95DF8044B70471F2905DD0320C7F200405DF8044B7047002AF7DBC1F12004A242F3DC4FF0FF349440E4438C4003FA01F144F61842C2F2000202EBC00292680020936923EA04030B439361D9E7022888BF022010B488BFC7F2004002D95DF8044B70471F2905DD0320C7F200405DF8044B7047002A24
S38510006000F7DBC1F12004A242F3DC44F61844C2F2000404EBC00080684FF0FF34406A04FA02F220FA01F121EA02021A600020DBE71F2910B405D90320C7F200405DF8044B704744F61843C2F2000303EBC00083681046002AF2D0012AEDD18A40DC6900202243DA615DF8044B704700BF1F2988BF032010B488BFC7F2004002D95DF8044BB6
S385100060807047012404FA01F144F61843C2F2000303EBC00083685B6A11EA03001ABF1470002010705DF8044B704700BF022803D90220C7F2004070471F2903DD0320C7F200407047002AF9DBC1F120018A42F5DC002070474FF0FF3303FA02F2D34303FA01F144F61843C2F2000303EBC0008368C9439A690A409A615A6B0A405A63DA6C35
S385100061001140D964704700BF10B442688468036804FA02F21868012914BF20EA020202431A605DF8044B70474FF0E02310B4D3F8084D3CB1D3F8083D42F0010200F1100443F8242000F1E02080F800145DF8044B704700BF4FF0E023D3F8082D52B140F24502D3F8083DC1F20002103042F0010243F82020704700BF3F2809D800F01F03F3
S3851000618001229A40400940304FF0E02343F82020704700BF3F2809D800F01F0301229A40400960304FF0E02343F82020704700BF3F2809D800F01F0301229A404009A0304FF0E02343F82020704700BF402888BF022010B488BFC7F2000002D95DF8044B70474FF0E023D3F8084D3CB1D3F8083D42F0010200F1100443F82420402800F15E
S38510006200E02318BF00F01F0283F800141FBF012101FA02F2400940304FF0E02318BF43F820205DF8044B0020704700BFEFF3108072B67047EFF3108062B67047022803D90420C7F20000704744F63443C2F2000303EBC0039B6801285A6822F001025A604FF080435A6A0BD002284FF0000003D142F480725A62704742F040025A627047B6
S3851000628042F0800200205A62704700BF4FF080414A6848F2A16342F460424A60C0F2010301E0013B03D04A6812F4604FF9D10020704700BF2DE9F04144F63445C2F200052B7882B00022012B04460F46019200F09E80012C00F0B480C0F0BE80022C40F090804FF08043596A4FF4204221F48071C4F20102AA61596201A8FFF705FB00282A
S3851000630040F082807B794FEAC40C012B05BF396805EB0C0305EB0C03019A09BF9B689B684900B2FBF1F218BF4FF6FF725A613979DE68102914BF01F00F01002105EB0C03002226F03C0859710E46DA8059B11346012101FA03F4013322439E4292B2F8D805EB0C03DA807A7948EA8606012A26F003067DD0FB7A012B04BF0220C7F20000C2
S3851000638042D03B7B6544012B26F08006AB6808BF46F080067C7BDE609969012C18BF21F4004100F085803C7C012C18BF21F000416BD099615968012A0CBF41F0020221F00202B9790129F9790CBF42F0040222F004020129397A0CBF42F0080222F008020129797A0CBF42F0100222F0100222F02002012908BF42F020025A6002B0BDE82B
S38510006400F0810420C7F2000002B0BDE8F0814FF080435A6A194622F4E0725A625A6842F460425A604B684FF0804213F46043F9D1516A012C41F4E07151622B707FF44CAF4FF08043596A4FF4104221F08001C4F201022A6159624FE74FF08043596A4FF4004221F04001C4F20102AA60596243E7BB7A012BFB7A08BF46F00106012B0CBFCB
S3851000648046F0020626F002067BE7BD7C7C7C05F007052D0604F0030445EA044421F0074144F0004421F4403144F48014214380E721F4074121F00304BD7B44F40044F97B44F0100405F003052C4301F0070144EA012168E710B50446002935D0022803D90220C7F2000010BD0A6841F62403A2F53772C0F2B7039A422AD80B79013BDBB288
S385100065000F2BEDD8012C27D0022C33D14FF42042C4F200021068134620F070401060906E20F07040906600221A6620465A66FFF7C1FE0028D7D144F63443C2F2000303EBC40301221A7110BD0320C7F2000010BD4B79012BD1D1C3E74FF40042C4F200021068134620F07E401060906E20F07E409066D8E74FF40042C4F2000210681346F9
S3851000658020F4FE001060906E20F4FE009066CAE72DE9F00F022888BF042082B088BFC7F2000003D902B0BDE8F00F704744F63448C000C2F2000808EB00073B7933B90520C7F2000002B0BDE8F00F7047BB6897F805C0DC68BCF1000F08BF4FF0100C24F00104DC60002A5DD0CCF1100900240D78BCF1080FEDB2019591F801A0FB88019EC7
S3851000660059D846EA0A260196019EDDB2E6400196DDF804A0A54003EA0A030193019B04EB0C0603FA09F301930B78082E23EA05030B7007DDBD79C4F108039D404B7823EA05034B70BD68019B2B60AB689B07FCD42B68FD88082E05EA030301930D78019BDBB203FA04F343EA0503DBB20B7008DD4D78019BC4F10804DBB2A3402B43DBB24F
S385100066804B70F4B2072C09D9A4F10803C3F3C403013A5D1CD21A294404F00704002AA6D140448368DA68002042F00102DA6002B0BDE8F00F704746EA0A26019691F802B0DDF804A003FA04F54AEA0B4ACDF804A091F803B0DDF804A004EB0C064AEA0B6ACDF804A0DDF804A0102E2AFA04FACDF804A0DDF804A003EA0A030193019B03FABA
S3851000670009F301930B7823EA05030B700ADDFD88C4F110031D418B7823EA05038B70CB78DBB2CB70BD68019B2B60AB689B07FCD42B68FD88102E05EA030301930D78019BDBB203FA04F343EA0503DBB20B7098DD8D78DDF804A0C4F110032AFA03F325EA03038B70CD78019BC4F11804E34025EA0303CB7085E700BF89B1022803D9042088
S38510006780C7F20000704744F63443C2F2000303EBC00003793BB90520C7F2000070470320C7F200007047836800209A6802F002029A609B680B607047022803D90420C7F20000704744F63443C000C2F200031A1812791AB90520C7F2000070470C29EDD8DFE801F06D655D554D453A2F271F170F070003449B6800209A6822F0FC029A6042
S38510006800704703449B6800205A6822F010025A60704703449B6800205A6842F010025A60704703449B6800205A6822F008025A60704703449B6800205A6842F008025A60704703449B68986910F0E060FBD19A6942F480129A61704703449B68986810F00200FBD19A6942F010029A61704703449B6800205A6822F004025A607047034436
S385100068809B6800205A6842F004025A60704703449B6800205A6822F002025A60704703449B6800205A6842F002025A60704703449B6800205A6822F001025A60704703449B6800205A6842F001025A60704700BF2DE9F04F44F65044C2F20004237887B00E46002B33D14FF08043D3F804C000274FF480554FF400514FF44052C4F2010506
S385100069004CF4FC6CC4F20107C4F20101C4F20102E56067606161E2611D46C3F804C06B684FF0804213F4FC6FF9D1516A012341F400415162516A41F480315162516A41F400315162516A41F4802151622370052800F28A80DFE800F027032B1B1F2306276FF48031C50063191A7A012A04BF0820C7F2000008D0F6B13269E2B1327B242A01
S385100069801FD90D20C7F2000007B0BDE8F08F08276FF48021E6E709276FF40021E2E70A276FF48011DEE705276FF40041DAE707276FF40031D6E70320C7F2000007B0BDE8F08F727B072ADCD8B27B012AD9D84FF08042506AD3F804C001405162B146E846B9E80F00A8E80F0096E8000C00220123CCF81020CCF80C30CCF800B0CCF804A06D
S38510006A00D9F80020DCF81030C8F800201A0644BF0520C7F60010B7D49DF80D20032A1CBFCCF804A0CCF800B027D023F4BF7323F001009DF80E109DF80C30024342EA811203F0070142EAC10203F0080342EA0323CCF81030326938462021FFF7B7FB38B10320C7F600108FE70220C7F200008BE72C4401236072237286E702998A4503D276
S38510006A800920C7F200007FE7CCF804A0CCF800B0CCF80810C9E700BF44F65043C2F2000303EBC0031A7A30B4012A1CBF0820C7F2000001D030BC7047597A01291FBF82404FF08044656A002117BF45EA02420420626208460CBFC7F60010197230BC70474FF080414A6848F2A16342F4FC624A60C0F2010301E0013B03D04A6812F4FC6F3D
S38510006B00F9D10020704700BF052888BF022010B488BFC7F2000002D95DF8044B704744F65043C2F2000303EBC0031A7A012A1CBF0120C7F60010EFD1597A012904BF0420C7F60010E8D0596800200C6944F080040C615A72E0E700BF052888BF022010B488BFC7F2000002D95DF8044B704744F65043C2F2000303EBC0031A7A012A03BF16
S38510006B80596800220C69012003BF24F080040C611046C7F6001008BF5A725DF8044B7047052803D90220C7F20000704744F65043C2F2000303EBC000037A1BB90120C7F60010704721B1436800201B680B6070470320C7F200007047052803D90220C7F20000704744F65043C2F2000303EBC000037A012B03D00120C7F600107047437AEB
S38510006C00012B0DD082B10129436811D020D302291AD11278012A2CD90420C7F2000070470420C7F6001070470320C7F200007047517B0729F0D8032923D01A69002022F007021143196170470920C7F2000070471278242AE0D8186902F00801090202F0070241EAC20120F49C720A431A61002070471969002021F0400141EA82121A61CC
S38510006C807047926858689042C6D39A60D5E700BF10B505282FD8DFE800F0190311131517062244F65043C2F2000303EBC0031C7A012C0DD00120C7F6001010BD0722F0E70822EEE70922ECE70A22EAE70522E8E75B7A012B07D051B110460A462021FFF723FA002010BD0420C7F6001010BD0320C7F2000010BD0220C7F2000010BD00BFDA
S38510006D0008B5052828D8DFE800F0190311131517062144F65043C2F2000303EBC0031A7A012A0DD00120C7F6001008BD0721F0E70821EEE70921ECE70A21EAE70521E8E75B7A012B03D10420C7F6001008BD0846FFF700FA002008BD0220C7F2000008BD08B5052822D8DFE800F01C03080D12170620FFF701FA002008BD0720FFF7FCF906
S38510006D80002008BD0820FFF7F7F9002008BD0920FFF7F2F9002008BD0A20FFF7EDF9002008BD0520FFF7E8F9002008BD0320C7F6001008BD08B5052822D8DFE800F01C03080D12170620FFF7E5F9002008BD0720FFF7E0F9002008BD0820FFF7DBF9002008BD0920FFF7D6F9002008BD0A20FFF7D1F9002008BD0520FFF7CCF9002008BD45
S38510006E000320C7F6001008BD44F65043C2F2000303EBC0035B68052822D8DFE800F01C03080D121701220620DA60FFF7C1B901220720DA60FFF7BCB901220820DA60FFF7B7B901220920DA60FFF7B2B901220A20DA60FFF7ADB901220520DA60FFF7A8B9704700BF84B030B444F65044C2F2000404EBC000446803A8256980E80E00280658
S38510006E8044BF0520C7F6001002D530BC04B070479DF81930032B1BD00399049A6160226025F4BF759DF81A109DF8182025F001052B4343EA811302F0070143EAC10302F0080243EA02222261002030BC04B07047059A91423CBF0920C7F20000D5D3049861602060A260DBE770B5044682B00D46052856D8DFE800F01B0313151719062650
S38510006F0044F65043C2F2000303EBC4031A7A012A1CBF0120C7F600100BD002B070BD0726EEE70826ECE70926EAE70A26E8E70526E6E75B7A012B04BF0420C7F60010ECD045B12B6933B12B7B242B07D90D20C7F20000E2E70320C7F20000DEE76B7B072BF4D8AB7B012BF1D805F10C0393E803008DE80300204695E80E00FFF773FF002807
S38510006F80CBD12046FFF740FF2A6930462021FFF71DF90323C7F60013002814BF18460020BBE70220C7F20000B7E700BF036910B423F0800343F4804303610469012324F007041C430461046924F41C6444EAC101016103604260026903695DF8044B134343F08003036170470123C360704700BF4FF080414A6848F2A16342F4C0524A6070
S38510007000C0F2010301E0013B03D04A6812F4C05FF9D10020704700BF2DE9F04383B08DF807009DF80730012B84BF0420C7F2000002D903B0BDE8F08381B144F68443C2F200031A680820C7F20000002AF1D00A78032A07D90220C7F20000EAE70320C7F20000E6E748780228F4D802D08C78012CF0D891F803C0BCF1010FEBD80D79012D3A
S38510007080E8D815B94C79012CE4D88E684FF43564A6F59667C0F20E04A742DBD89DF80740182707FB0434A4686768BF07FCD14BF6CC78C0F21908B8FBF6F806FB08F94BF6CC77C0F21907C9EB0707FF01B7FBF6F606F07F06C4F8108066612668022826F4406646EA82221FBF22F0200242EA401242F01002887816BF22F0400222F0100205
S3851000710042EA801222F4805242EA0C3222F4005242EA453222F00F0242F00102226025B1E269487942EA4002E2619DF80720A2B9CA68002A92D09DF80720182000FB0233CA6858683021FFF741F80523C7F20013002814BF184600206BE7002069E700BF84B0F0B544F68444C2F2000483B0266809AD8DF8070085E80E00FEB94FF080434E
S385100071805E6800214FF4805246F4C056C4F20201C4F20202A160226218465E6043684FF0804213F4C05FF9D1516A012341F400715162516A41F48061516223609DF80730012B07D90420C7F2000003B0BDE8F04004B070479DF807309DF8072003EB430304EBC30144F684438868C2F2000302F0FF01002A3CD00129E4D19DF807200F218C
S3851000720002EB420203EBC20359606FF440566FF480674FF08042516A4FF4004339405162516AC4F2000321F00101516219680022314019609F6E29463E409E668260C2609DF80700FFF7E8FE9DF8073003EB430304EBC304A268136843F440731360136813F4407FFBD103B0BDE8F04004B070479DF807200E2102EB420203EBC203596049
S385100072806FF440766FF40077C3E700BF82B08DF807009DF80730012B84BF0420C7F2000001D902B0704721B39DF8072044F6844302EB4202C2F2000303EBC2029268E2B19DF8072002EB420203EBC2039B685A68D20644BF0720C7F20000E2D4186A10F480701CBF0920C7F20000DAD11B6A0B70D7E70320C7F20000D3E70520C7F2000065
S38510007300CFE700BF82B08DF807009DF80730012B84BF0420C7F2000001D902B070479DF8072044F6844302EB4202C2F2000303EBC2029268B2B19DF8072002EB420203EBC2039A685368180644BF0720C7F20000E3D4116253685906FCD5506810F00100F8D1DAE70520C7F20000D6E782B08DF807009DF80730012B84BF0420C7F200008E
S3851000738001D902B070479DF8072044F6844302EB4202C2F2000303EBC202926872B19DF8072002EB420203EBC2039B681A680A431A6018680840FCD102B070470520C7F20000DEE782B08DF807009DF80730012B84BF0420C7F2000001D902B07047B1B19DF8072044F6844302EB4202C2F2000303EBC202926872B19DF80720002002EB7B
S38510007400420203EBC2039B685B680B60E5E70320C7F20000E1E70520C7F20000DDE700BF10B483B08DF807009DF80730012B84BF0420C7F2000003D903B05DF8044B70479DF8073044F6844103EB4303C2F2000101EBC3039B68002B38D09DF8073003EB430301EBC3039A68136843F440731360136813F44073FBD19DF8072002EB420262
S3851000748001EBC202926893609DF8073003F0FF0203B3012A16D14FF480644FF08042506A4FF4004320435062C4F200031868002240F4706018609C6E104644F470649C660A60B9E70220C7F20000B5E70520C7F20000B1E74FF40074DFE700BF82B08DF807009DF8072044F6844302EB4202C2F2000303EBC2039A6813680B43136013688D
S385100075001942FCD102B0704700B583B08DF807009DF8073053B19DF80730012B1CBF0220C7F2000002D003B05DF804FB9DF8070044F6844300EB4000C2F2000303EBC00082689AB10320C7F200000029EBD09DF807000A4600EB400003EBC00358683021FEF7E2FD002003B05DF804FB0120C7F2001003B05DF804FB00B583B08DF807003E
